{"abi":[{"type":"constructor","inputs":[],"stateMutability":"nonpayable"},{"type":"function","name":"execute","inputs":[{"name":"req","type":"tuple","internalType":"struct MinimalForwarder.ForwardRequest","components":[{"name":"from","type":"address","internalType":"address"},{"name":"to","type":"address","internalType":"address"},{"name":"value","type":"uint256","internalType":"uint256"},{"name":"gas","type":"uint256","internalType":"uint256"},{"name":"nonce","type":"uint256","internalType":"uint256"},{"name":"data","type":"bytes","internalType":"bytes"}]},{"name":"signature","type":"bytes","internalType":"bytes"}],"outputs":[{"name":"","type":"bool","internalType":"bool"},{"name":"","type":"bytes","internalType":"bytes"}],"stateMutability":"payable"},{"type":"function","name":"getNonce","inputs":[{"name":"from","type":"address","internalType":"address"}],"outputs":[{"name":"","type":"uint256","internalType":"uint256"}],"stateMutability":"view"},{"type":"function","name":"getTypedDataHash","inputs":[{"name":"req","type":"tuple","internalType":"struct MinimalForwarder.ForwardRequest","components":[{"name":"from","type":"address","internalType":"address"},{"name":"to","type":"address","internalType":"address"},{"name":"value","type":"uint256","internalType":"uint256"},{"name":"gas","type":"uint256","internalType":"uint256"},{"name":"nonce","type":"uint256","internalType":"uint256"},{"name":"data","type":"bytes","internalType":"bytes"}]}],"outputs":[{"name":"","type":"bytes32","internalType":"bytes32"}],"stateMutability":"view"},{"type":"function","name":"verify","inputs":[{"name":"req","type":"tuple","internalType":"struct MinimalForwarder.ForwardRequest","components":[{"name":"from","type":"address","internalType":"address"},{"name":"to","type":"address","internalType":"address"},{"name":"value","type":"uint256","internalType":"uint256"},{"name":"gas","type":"uint256","internalType":"uint256"},{"name":"nonce","type":"uint256","internalType":"uint256"},{"name":"data","type":"bytes","internalType":"bytes"}]},{"name":"signature","type":"bytes","internalType":"bytes"}],"outputs":[{"name":"","type":"bool","internalType":"bool"}],"stateMutability":"view"}],"bytecode":{"object":"0x60a060405234801561000f575f5ffd5b507f8b73c3c69bb8fe3d512ecc4cf759cc79239f7b179b0ffacaa9a75d522b39400f7f9e0923a39f515e9a8cebc9fb694b9abf7e4b8c3f7ab6f81b56eabdac504b08dc7fc89efdaa54c0f20c7adf612882df0950f5a951637e0307cdcb4c672f298b8bc6463060405160200161008995949392919061011a565b604051602081830303815290604052805190602001206080818152505061016b565b5f819050919050565b6100bd816100ab565b82525050565b5f819050919050565b6100d5816100c3565b82525050565b5f73ffffffffffffffffffffffffffffffffffffffff82169050919050565b5f610104826100db565b9050919050565b610114816100fa565b82525050565b5f60a08201905061012d5f8301886100b4565b61013a60208301876100b4565b61014760408301866100b4565b61015460608301856100cc565b610161608083018461010b565b9695505050505050565b608051610d3d6101835f395f6102f80152610d3d5ff3fe60806040526004361061003e575f3560e01c80632d0335ab1461004257806347153f821461007e578063796868ad146100af578063bf5d3bdb146100eb575b5f5ffd5b34801561004d575f5ffd5b50610068600480360381019061006391906105e0565b610127565b6040516100759190610623565b60405180910390f35b610098600480360381019061009391906106bf565b61016c565b6040516100a69291906107c2565b60405180910390f35b3480156100ba575f5ffd5b506100d560048036038101906100d091906107f0565b6102f5565b6040516100e2919061084f565b60405180910390f35b3480156100f6575f5ffd5b50610111600480360381019061010c91906106bf565b6103ec565b60405161011e9190610868565b60405180910390f35b5f5f5f8373ffffffffffffffffffffffffffffffffffffffff1673ffffffffffffffffffffffffffffffffffffffff1681526020019081526020015f20549050919050565b5f606061017a8585856103ec565b6101b9576040517f08c379a00000000000000000000000000000000000000000000000000000000081526004016101b090610901565b60405180910390fd5b600185608001356101ca919061094c565b5f5f875f0160208101906101de91906105e0565b73ffffffffffffffffffffffffffffffffffffffff1673ffffffffffffffffffffffffffffffffffffffff1681526020019081526020015f20819055505f5f86602001602081019061023091906105e0565b73ffffffffffffffffffffffffffffffffffffffff1687606001358860400135898060a00190610260919061098b565b8b5f01602081019061027291906105e0565b60405160200161028493929190610a6e565b6040516020818303038152906040526040516102a09190610ac7565b5f60405180830381858888f193505050503d805f81146102db576040519150601f19603f3d011682016040523d82523d5f602084013e6102e0565b606091505b50915091508181935093505050935093915050565b5f7f00000000000000000000000000000000000000000000000000000000000000007fdd8f4b70b0f4393e889bd39128a30628a78b61816a9eb8199759e7a349657e48835f01602081019061034a91906105e0565b84602001602081019061035d91906105e0565b856040013586606001358760800135888060a0019061037c919061098b565b60405161038a929190610add565b60405180910390206040516020016103a89796959493929190610b04565b604051602081830303815290604052805190602001206040516020016103cf929190610be5565b604051602081830303815290604052805190602001209050919050565b5f5f6103f98585856104a1565b9050845f01602081019061040d91906105e0565b73ffffffffffffffffffffffffffffffffffffffff168173ffffffffffffffffffffffffffffffffffffffff1614801561049757505f5f865f01602081019061045691906105e0565b73ffffffffffffffffffffffffffffffffffffffff1673ffffffffffffffffffffffffffffffffffffffff1681526020019081526020015f20548560800135145b9150509392505050565b5f5f6104ac856102f5565b90505f5f5f6104bb878761051a565b9250925092506001848285856040515f81526020016040526040516104e39493929190610c36565b6020604051602081039080840390855afa158015610503573d5f5f3e3d5ffd5b505050602060405103519450505050509392505050565b5f5f5f60418585905014610563576040517f08c379a000000000000000000000000000000000000000000000000000000000815260040161055a90610ce9565b60405180910390fd5b843592506020850135915060408501355f1a90509250925092565b5f5ffd5b5f5ffd5b5f73ffffffffffffffffffffffffffffffffffffffff82169050919050565b5f6105af82610586565b9050919050565b6105bf816105a5565b81146105c9575f5ffd5b50565b5f813590506105da816105b6565b92915050565b5f602082840312156105f5576105f461057e565b5b5f610602848285016105cc565b91505092915050565b5f819050919050565b61061d8161060b565b82525050565b5f6020820190506106365f830184610614565b92915050565b5f5ffd5b5f60c082840312156106555761065461063c565b5b81905092915050565b5f5ffd5b5f5ffd5b5f5ffd5b5f5f83601f84011261067f5761067e61065e565b5b8235905067ffffffffffffffff81111561069c5761069b610662565b5b6020830191508360018202830111156106b8576106b7610666565b5b9250929050565b5f5f5f604084860312156106d6576106d561057e565b5b5f84013567ffffffffffffffff8111156106f3576106f2610582565b5b6106ff86828701610640565b935050602084013567ffffffffffffffff8111156107205761071f610582565b5b61072c8682870161066a565b92509250509250925092565b5f8115159050919050565b61074c81610738565b82525050565b5f81519050919050565b5f82825260208201905092915050565b8281835e5f83830152505050565b5f601f19601f8301169050919050565b5f61079482610752565b61079e818561075c565b93506107ae81856020860161076c565b6107b78161077a565b840191505092915050565b5f6040820190506107d55f830185610743565b81810360208301526107e7818461078a565b90509392505050565b5f602082840312156108055761080461057e565b5b5f82013567ffffffffffffffff81111561082257610821610582565b5b61082e84828501610640565b91505092915050565b5f819050919050565b61084981610837565b82525050565b5f6020820190506108625f830184610840565b92915050565b5f60208201905061087b5f830184610743565b92915050565b5f82825260208201905092915050565b7f4d696e696d616c466f727761726465723a20696e76616c6964207369676e61745f8201527f7572650000000000000000000000000000000000000000000000000000000000602082015250565b5f6108eb602383610881565b91506108f682610891565b604082019050919050565b5f6020820190508181035f830152610918816108df565b9050919050565b7f4e487b71000000000000000000000000000000000000000000000000000000005f52601160045260245ffd5b5f6109568261060b565b91506109618361060b565b92508282019050808211156109795761097861091f565b5b92915050565b5f5ffd5b5f5ffd5b5f5ffd5b5f5f833560016020038436030381126109a7576109a661097f565b5b80840192508235915067ffffffffffffffff8211156109c9576109c8610983565b5b6020830192506001820236038313156109e5576109e4610987565b5b509250929050565b5f81905092915050565b828183375f83830152505050565b5f610a1083856109ed565b9350610a1d8385846109f7565b82840190509392505050565b5f8160601b9050919050565b5f610a3f82610a29565b9050919050565b5f610a5082610a35565b9050919050565b610a68610a63826105a5565b610a46565b82525050565b5f610a7a828587610a05565b9150610a868284610a57565b601482019150819050949350505050565b5f610aa182610752565b610aab81856109ed565b9350610abb81856020860161076c565b80840191505092915050565b5f610ad28284610a97565b915081905092915050565b5f610ae9828486610a05565b91508190509392505050565b610afe816105a5565b82525050565b5f60e082019050610b175f83018a610840565b610b246020830189610af5565b610b316040830188610af5565b610b3e6060830187610614565b610b4b6080830186610614565b610b5860a0830185610614565b610b6560c0830184610840565b98975050505050505050565b5f81905092915050565b7f19010000000000000000000000000000000000000000000000000000000000005f82015250565b5f610baf600283610b71565b9150610bba82610b7b565b600282019050919050565b5f819050919050565b610bdf610bda82610837565b610bc5565b82525050565b5f610bef82610ba3565b9150610bfb8285610bce565b602082019150610c0b8284610bce565b6020820191508190509392505050565b5f60ff82169050919050565b610c3081610c1b565b82525050565b5f608082019050610c495f830187610840565b610c566020830186610c27565b610c636040830185610840565b610c706060830184610840565b95945050505050565b7f4d696e696d616c466f727761726465723a20696e76616c6964207369676e61745f8201527f757265206c656e67746800000000000000000000000000000000000000000000602082015250565b5f610cd3602a83610881565b9150610cde82610c79565b604082019050919050565b5f6020820190508181035f830152610d0081610cc7565b905091905056fea2646970667358221220f7b9454f075c2d70356073b741fc441fed594d7b842e7f95c5d077129a0fb3dc64736f6c63430008210033","linkReferences":{}},"methodIdentifiers":{"execute((address,address,uint256,uint256,uint256,bytes),bytes)":"47153f82","getNonce(address)":"2d0335ab","getTypedDataHash((address,address,uint256,uint256,uint256,bytes))":"796868ad","verify((address,address,uint256,uint256,uint256,bytes),bytes)":"bf5d3bdb"},"id":24}